S014000052544F532D4578616D706C652E73726563CF
S214400000502D4020F9094000F7094000F70940000C
S214400010F7094000F7094000F709400000000000DB
S214400020000000000000000000000000F10D40004D
S214400030F709400000000000910E4000F50E400019
S214400040F7094000F7094000F7094000F70940006B
S214400050F7094000F7094000F7094000F70940005B
S214400060F70940000000000015074000290740003F
S2144000703D074000F7094000FD334000F7094000C7
S2144000805107400065074000F7094000F709400067
S214400090F7094000F7094000F7094000F70940001B
S2144000A0F7094000F7094000F7094000F70940000B
S2144000B0F7094000F7094000F7094000F7094000FB
S2144000C0F7094000F7094000F7094000F7094000EB
S2144000D0F7094000F7094000F7094000F7094000DB
S2144000E0F7094000F7094000F7094000F7094000CB
S2144000F0F7094000F7094000F7094000F7094000BB
S214400100F7094000F7094000F7094000F7094000AA
S214400110F70940000000000000000000000000005A
S214400120F7094000F7094000F7094000F70940008A
S214400130F7094000F7094000F7094000F70940007A
S214400140F7094000F7094000F7094000F70940006A
S214400150F7094000F7094000F7094000F70940005A
S214400160F7094000F709400010B5054C237833B92D
S214400170044B13B10448AFF300800123237010BD35
S214400180B8094020000000009CA540000C4B43B13D
S2144001900C480D4910B5AFF300800C48036823B9EE
S2144001A010BD0A48036833B97047094B002BF7D097
S2144001B0BDE810401847064B002BF5D0184700BF47
S2144001C0000000009CA54000BC0940209CA54000C3
S2144001D00000000010B51048104B98473E21002004
S2144001E00F4B98470F4CA0470028FCD00E4B984723
S2144001F00E4A0F4B9A620F4CA0470028FCD00220B4
S2144002000D4B984700200D4B98470D4B984702489A
S214400210024B984710BD00BF80D1F008CD0B400080
S214400220150840006908400079084000013F182042
S21440023000060E408908400079074000B10740009C
S214400240C10A40002DE9F04180B90C469046002A8C
S2144002500FDD8F18084E094D306821462B689847A9
S2144002600134BC42F8D14046BDE8F0814FF0FF383B
S214400270F9E78046F7E700BFD40C4020CC0C40207E
S2144002800138022815D82DE9F0410E4614469AB199
S2144002900D46DFF838800C4FD8F8000015F8011BE3
S2144002A03B68984700280ADBA81B013CF4D1BDE810
S2144002B0F0814FF0FF3070471046BDE8F0814FF0B8
S2144002C0FF30BDE8F08100BFD00C4020D40C402069
S2144002D0F8B54FF400425B4B5A60BFF34F8FBFF305
S2144002E06F8F594B0021C3F85012BFF34F8FBFF3A7
S2144002F06F8F5A6942F400325A61BFF34F8FBFF393
S2144003006F8FC3F88410BFF34F8FD3F88070C7F356
S2144003104E35C7F3C9076E014FEA877C43F6E07E49
S2144003201C4606EA0E0062463B4640EA0201C4F816
S2144003306012013B02F14042B3F1FF3FF5D1013D6F
S214400340203EB5F1FF3FECD1BFF34F8F3E4B5A698D
S21440035042F480325A61BFF34F8FBFF36F8F3B4AF0
S2144003603B495160A1F580715160BFF34F8FBFF399
S2144003706F8FD3F8902222F00102C3F89022D3F870
S214400380942222F00102C3F89422BFF34F8FBFF3AA
S2144003906F8F0A202F4CA0470B20A0470C20A04769
S2144003A01020A0471120A0472B4B4FF480721A61B3
S2144003B0C3F8A0201A63A3F580634FF400625A6125
S2144003C0C3F8A0205A66C3F890205A651A62C3F84C
S2144003D08420196F21F400611967596F21F4006178
S2144003E05967C3F8C020C3F8D420C3F8B0204FF4F0
S2144003F000121A66C3F890205A655A62C3F88020E5
S214400400196F21F400111967596F21F400115967CB
S2144004105A60124AD2F8143143F01003C2F814312D
S2144004200F4B10221A66C3F890205A655A62C3F8DA
S2144004308020196F11431967596F114359675A60E5
S214400440F8BD00BF50180E4000ED00E0000C0E4016
S2144004500C08005A9908400000120E4000800840E0
S21440046000100E40C0F8841053004FF40042B2FB18
S214400470F3F2013AC2F30D02C0F88C2070470163D4
S2144004807047416370474264B1F1C05F3AD013D8B9
S214400490B1F1006F25D0B1F1805F0AD1036F1343ED
S2144004A00367436F416F0B4023EA02034367426092
S2144004B070470029FBD17047B1F1205F21D009D8A1
S2144004C0B1F1005FF3D1036F13430367436F1343E8
S2144004D04367ECE7B1F1405F13D0B1F1605F10D0F5
S2144004E0E5E710B4016F046FD34321401C46194022
S2144004F00167436F416F0B402340436742605DF89E
S214400500044B7047036F016F0B4023EA02030367F7
S214400510436F13434367CAE7416412F0010F0DD19E
S214400520016612F00A0F0BD0016212F0020F09D1D9
S21440053012F0080F08D0C0F8841005E04166F0E7D6
S2144005404162F2E7C0F8801041610160704710B424
S214400550019C41644CB901664BB101654AB941639F
S214400560016101605DF8044B70474166F4E7416500
S214400570F4E70163F4E7000070B582B0054616461E
S2144005801C46B1F1005F14D00AD9B1F1405F24D0C7
S214400590B1F1605F21D0B1F1205F17D000201AE0A2
S2144005A0B1F1805F05D0B1F1C05F02D0B1F1006F0C
S2144005B0F4D132462846114B984714F0010F02D129
S2144005C02E66012007E06E66012004E01A4631469A
S2144005D00B4B9847012002B070BD04F00103009316
S2144005E0C4F38003B1F1605F14BF0022012231469C
S2144005F02846044CA0470120EDE700BF8704400092
S214400600190540004F054000836B0B4214BF012084
S2144006100020704712F0100F12D0C0F8B01012F041
S214400620200F07D0C0F8D41012F0400F05D0C0F805
S214400630C0107047C0F8D010F6E7C0F8C410704736
S214400640C0F8B410704701647047C06C7047806C47
S214400650704700002DE9F041044688460E4B984707
S214400660054620460D4B9847054013D00C4C04F1E8
S214400670600603E0B4420DD010345DB120684045BA
S214400680F8D161682942F5D0E3689847636825EA5F
S2144006900305EFE7BDE8F0814B0640004F064000FB
S2144006A0D4094020F8B5184C2668062E2AD84FF0B4
S2144006B0000C6446154F04E00134E4B2A446A6425A
S2144006C009D3A64625017D598D42F5D107EB041581
S2144006D06D689542F0D10D4D4FEA0E1E05EB0E04A7
S2144006E045F80E106260A3600699E16001366645E3
S2144006F005D011461A46064B98470020F8BD0249D9
S2144007000E60F6E70120F8BD440A4020D409402098
S2144007101506400008B50A210148024B984708BD17
S214400720000E0E405506400008B50B210148024B0E
S214400730984708BD00100E405506400008B50C21ED
S2144007400148024B984708BD00120E40550640002F
S21440075008B510210148024B984708BD00140E40CA
S2144007605506400008B511210148024B984708BD80
S21440077000160E4055064000032811D0042812D01B
S21440078002280CBF4FF480710021084A136B23F4F3
S21440079040730B431363936E13F0080FFBD0704700
S2144007A04FF44071F1E74FF40071EEE700060E405B
S2144007B0174A136B23F0700318431063936E13F0BD
S2144007C0080F0AD14FF4805311498A6E12F0080F71
S2144007D003D1013BF9D1012070470D4A136B23F03A
S2144007E0030343F002031363936E13F0080F0AD11A
S2144007F04FF4805306498A6E12F0080F05D1013B2C
S214400800F9D101207047002070470020704700BF94
S21440081000060E40A0B90E48036A090289B20D4A86
S2144008201A400D4B1343194301620246936E13F070
S214400830010FFBD0064A116A084B0B431362704700
S21440084003490B6A064A1A40064B13430B6270472D
S21440085000060E40FCFFC8FF0100370000003701CD
S214400860FCFFC8FE02003701024B986E00F4803051
S214400870704700BF00060E404FF00052014B9A6290
S214400880704700BF00060E40024B986E00F0020014
S214400890704700BF00060E4000F07F00054BC3F8CF
S2144008A00C01D3F80C2142F01022C3F80C21002092
S2144008B0704700BF00060E40436913F0020F02D097
S2144008C0C1610020704701207047436913F0010F53
S2144008D003D083690B70002070470120704710B426
S2144008E00B01934214D9C9004B0803EBC202B2FB7A
S2144008F0F1F2D3085C1E4FF6FE718C4201D90120FE
S21440090017E0416841F4002141600CE0012010E00E
S214400910590801EBC202B2FBF3F2D3085C1E4FF655
S214400920FE718C42F2D8120402F4E0221A430262AC
S21440093000205DF8044B7047084BC0F8E4300023B5
S21440094043604362836288230360242303604FF43A
S214400950807303604FF40023036070470041535593
S21440096070B505460C4616460F4B984700220F4B6F
S2144009701A60A4B13246216828460D4B9847024675
S21440098078B96368A1680B4321690B43E1680B4360
S21440099006490B6069680B436B60104670BD0122C8
S2144009A0FBE70122F9E700BF39094000480A40202A
S2144009B0DF08400040230360704710230360704701
S2144009C08160704740697047436913F0020F04D056
S2144009D0C1F30801C1610020704701207047436998
S2144009E013F0010F05D08369C3F308030B600020A2
S2144009F0704701207047FEE700B583B0254B264A76
S214400A009A4210D0254B234A9A420CD2013B9B1A5D
S214400A1023F00303043313441F4951F8040B42F8F0
S214400A20040B9A42F9D11E4B1E4A9A420AD2013B07
S214400A309B1A23F0030304331344002142F8041B9B
S214400A409342FBD1184A194B23F07F039360EFF390
S214400A501083B3FA83F35B09019372B6BFF35F8FDB
S214400A600022134B1A700199124A136843F470031C
S214400A701360BFF34F8FBFF36F8F29B101220C4B2A
S214400A801A70BFF35F8F62B60B4B98470B4B984775
S214400A90FEE700BF000040209CA54000B80940206B
S214400AA0500D4020B809402000ED00E00000400016
S214400AB00000402088ED00E095364000513440006C
S214400AC03B4B1B6B03F00303012B1DD083B1022B62
S214400AD036D0374B1B6B03F07003702B5FD0344B14
S214400AE01A6B3449C2F302120B68D3400B6070474E
S214400AF0314B5B6913F0800F14BF4FF400424FF444
S214400B00FA422C4B1A60E4E7294B1B6A13F0807FAD
S214400B1003D02A4A274B1A60DBE7294A254B1A603E
S214400B20234B1B6A03F07003102B05D0202BD0D12B
S214400B30224A204B1A60CCE7224A1E4B1A60C8E76E
S214400B401B4B1B6A13F0807F16D01C4A194B1A6049
S214400B50174B1B6B03F00303022BBAD1144A916A5E
S214400B60926A1448C1F30A41036801FB0333D2B2C8
S214400B70B3FBF2F30360ACE7114A0E4B1A600C4B22
S214400B801B6A03F07003102B05D0202BE0D10B4AD4
S214400B90084B1A60DCE70B4A064B1A60D8E7054A52
S214400BA013680949A1FB03135B081360704700BF35
S214400BB000060E400400402010180E40001BB700F0
S214400BC000093D0000127A00ABAAAAAA164B98422A
S214400BD013D9164B984215D9154B984216D9154B32
S214400BE0984217D9144B984218D9144B984294BF40
S214400BF0134A144A144B1A6070474FF08062124BE7
S214400C001A607047114A104B1A607047104A0E4BD4
S214400C101A6070470F4A0C4B1A6070474FF0042218
S214400C20094B1A60704700BFBFF35E017FE7BD0205
S214400C303FDB1C04FFCE7B05BFC2DA067FB6390811
S214400C400005000400060004000C0E4000010004ED
S214400C5000020004000300040A4B1B6853B1094B12
S214400C601B681A180849914208DB1046054A10606E
S214400C7018467047054A034B1A60F0E74FF0FF30BE
S214400C80704700BF4C0A4020FCFF4520502F4020B4
S214400C904FF0FF3070474FF400534B6000207047D2
S214400CA0012070470020704700F1080343604FF072
S214400CB0FF328260C36003610023036070470023F5
S214400CC00361704743684B609A688A609A685160CF
S214400CD099600861036801330360704730B40D685B
S214400CE0B5F1FF3F02D000F1080202E0026904E0DD
S214400CF01A4653681C68A542FAD253684B609960FE
S214400D008A605160086103680133036030BC7047F5
S214400D1003694268816891608268416851605A6898
S214400D20904206D0002202611A68013A1A6018689A
S214400D30704782685A60F5E782B0002301930F4BF4
S214400D401B68B3F1FF3F0AD04FF0800372B683F3BF
S214400D501188BFF36F8FBFF34F8F62B6FEE74FF039
S214400D60800372B683F31188BFF36F8FBFF34F8F44
S214400D7062B6019B002BFCD002B0704708004020B2
S214400D8008480068006880F308884FF0000080F349
S214400D90148862B661B6BFF34F8FBFF36F8F00DF24
S214400DA000BF000008ED00E0DFF80C00016841F4E9
S214400DB0700101607047000088ED00E04FF08073DE
S214400DC040F8043C21F0010140F8081C054B40F86F
S214400DD00C3C40F8202C6FF0020340F8243C44388A
S214400DE0704700BF390D40000000000000000000C2
S214400DF0074B19680868B0E8F04F80F30988BFF3DE
S214400E006F8F4FF0000080F311887047AFF300807B
S214400E10580A40204FF0800372B683F31188BFF320
S214400E206F8FBFF34F8F62B60B4A13680133136060
S214400E30012B0FD1094B1B6813F0FF0F0AD04FF060
S214400E40800372B683F31188BFF36F8FBFF34F8F63
S214400E5062B6FEE7704700BF0800402004ED00E0A1
S214400E600A4B1B6853B94FF0800372B683F3118860
S214400E70BFF36F8FBFF34F8F62B6FEE7013B034A67
S214400E8013600BB983F31188704700BF08004020F9
S214400E90EFF30980BFF36F8F154B1A681EF0100FE3
S214400EA008BF20ED108A20E9F04F10602DE90900B8
S214400EB04FF0800072B680F31188BFF34F8FBFF3B8
S214400EC06F8F62B601F0BEF94FF0000080F31188D4
S214400ED009BC19680868B0E8F04F1EF0100F08BF4C
S214400EE0B0EC108A80F30988BFF36F8F704700BF5D
S214400EF0580A402008B54FF0800372B683F3118835
S214400F00BFF36F8FBFF34F8F62B6054B984718B14C
S214400F104FF08052034B1A60002383F3118808BDBC
S214400F20891F400004ED00E0054B00221A60054989
S214400F300A600549054A116007221A60704700BFDB
S214400F4010E000E018E000E0BF27090014E000E0F1
S214400F5010B582B02E4B1A78D2B20192FF221A7088
S214400F601B78DBB28DF803309DF8033003F0800326
S214400F70284A13700722284B1A609DF8033013F056
S214400F80800F12D0062300E00B469DF80320520047
S214400F90D2B28DF803209DF80320591E12F0800F20
S214400FA0F2D11D4A1360042B0AD04FF0800372B66C
S214400FB083F31188BFF36F8FBFF34F8F62B6FEE7A0
S214400FC01B0203F4E063144A1360019BDBB2104A31
S214400FD01370124B1A6842F460021A601A6842F0A4
S214400FE060421A600E4B984700240E4B1C600E4B16
S214400FF098470E4A136843F0404313600C4B98479B
S2144010000C4B98470C4B9847204602B010BD00BF8B
S21440101000E400E0500A4020540A402020ED00E062
S214401020290F400008004020A90D400034EF00E0A2
S214401030810D400045224000390D4000EFF3058306
S2144010400F2B11D9124A9B5CDBB2124A12789A4295
S2144010500AD94FF0800372B683F31188BFF36F8FBF
S214401060BFF34F8F62B6FEE70B4B1B6803F4E0639B
S2144010700A4A126893420AD94FF0800372B683F345
S2144010801188BFF36F8FBFF34F8F62B6FEE770478E
S214401090F0E300E0500A40200CED00E0540A402007
S2144010A010B50446064B98472046064B98470446DC
S2144010B0054B98470CB1204610BD044B9847FAE7BD
S2144010C06D1F40000D374000D1204000E533400002
S2144010D048B110B50446044B98472046034B984702
S2144010E0034B984710BD70476D1F40001D374000AA
S2144010F0D120400010B50446044B9847A46B044BDF
S2144011009847B4FA84F0400910BD00BF150E400061
S214401110610E400070B504461646856B026C52B9A7
S2144011200368002B2AD14068174B9847002363601A
S2144011300135A56370BD6EB98068144B9847A368A7
S214401140226C1344A3606268934219D32368A36059
S2144011500020EDE7C0680D4B9847236C5B42E26881
S2144011601A44E26021688A4202D262681344E3600D
S21440117045B1022E06D1013D0020D9E70020D7E731
S2144011800020D5E70020D3E78D2740008D3C400067
S21440119070B582B00190846C74B1A26BE36B9A42D6
S2144011A015D34FF0800372B683F31188BFF36F8F69
S2144011B0BFF34F8F62B6FEE74FF0800372B683F3FD
S2144011C01188BFF36F8FBFF34F8F62B6FEE7A26BF7
S2144011D0934203D80026304602B070BD0A4694F8C3
S2144011E045506DB201A920460A4B98470646B5F1D0
S2144011F0FF3F0AD1636A002BEDD004F12400064B72
S2144012009847002818BF0126E5E76B1C5BB284F8B8
S2144012104530E0E71511400099234000026C72B15A
S21440122010B50346C4681444C4604068844201D381
S2144012301868D8600846D968014B984710BD704773
S2144012408D3C40002DE9F0410546234B984795F8E4
S214401250454064B2002C19DD204EDFF88C80204FCC
S21440126008E06B6A93B105F12400B84760B9013CC9
S21440127064B25CB1AB6C002BF3D000212846B0477B
S2144012800028F4D0C047F2E7C047F0E7FF2385F8D0
S2144012904530144B9847104B984795F8444064B2F5
S2144012A0002C12DD2B6983B105F110070C4EDFF8D8
S2144012B0388004E0013C64B23CB12B692BB138461F
S2144012C0B0470028F6D0C047F4E7FF2385F84430FF
S2144012D0044B9847BDE8F081150E40009111400040
S2144012E099234000610E4000DD24400038B530B3FD
S2144012F004460D461D4B98472268216CE36B03FB62
S21440130001F3D01860600020A063A2605B1A13440B
S214401310E360FF2384F8443084F84530D5B9236928
S214401320FBB104F11000124B9847D0B14FF08052F9
S214401330104B1A60BFF34F8FBFF36F8F11E04FF023
S214401340800372B683F31188BFF36F8FBFF34F8F5E
S21440135062B6FEE704F11000074DA84704F12400EA
S214401360A847064B9847012038BD00BF150E4000E1
S2144013709923400004ED00E0A90C4000610E4000B7
S214401380F8B550B94FF0800372B683F31188BFF3B7
S2144013906F8FBFF34F8F62B6FEE7064617460D4681
S2144013A001FB00F054300B4B9847044678B11DB112
S2144013B000F15403036000E02060E66325640121E9
S2144013C02046054B984784F850700023A364204677
S2144013D0F8BD00BFA1104000ED1240002DE9F04FCF
S2144013E085B00192B8B1044601B3022B2CD01E46FC
S2144013F00F46694B9847002834D1019B002B39D0C3
S2144014004FF0800372B683F31188BFF36F8FBFF33C
S2144014104F8F62B6FEE74FF0800372B683F31188B3
S214401420BFF36F8FBFF34F8F62B6FEE7026C002AA2
S214401430DBD04FF0800372B683F31188BFF36F8F13
S214401440BFF34F8F62B6FEE7E26B012ACFD04FF074
S214401450800372B683F31188BFF36F8FBFF34F8F4D
S21440146062B6FEE70025DFF85C81DFF85CA1DFF8B6
S214401470349141E00025F6E7324639462046474B50
S2144014809847A36C93B131462046454B984738B1B0
S2144014904FF08052434B1A60BFF34F8FBFF36F8FAE
S2144014A0414B9847012005B0BDE8F08F636A73B1A1
S2144014B004F124003D4B98470028F1D04FF080526D
S2144014C0384B1A60BFF34F8FBFF36F8FE8E70028A3
S2144014D0E6D04FF08052334B1A60BFF34F8FBFF3C6
S2144014E06F8FDDE7304B98470020DCE72046304BD7
S2144014F09847304B98470125C047A26BE36B9A420A
S214401500BAD3022EB8D0019B002BEBD00DB902A85F
S214401510D047254B9847284B9847C04794F84430C7
S2144015205BB2B3F1FF3F02D1002384F8443094F815
S21440153045305BB2B3F1FF3F02D1002384F845301B
S214401540194B984701A902A81C4B9847E0B9C047D9
S214401550D4F838B0E56B144B9847AB45C6D10199E3
S21440156004F11000164B98472046114B9847114BF4
S21440157098470028BFD14FF08053C9F80030BFF3DA
S2144015804F8FBFF36F8FB6E72046094B9847094BFE
S2144015909847002087E700BFAD2640001511400061
S2144015A09111400004ED00E0610E40009923400098
S2144015B045124000D12040006D1F400049244000A5
S2144015C015234000150E4000312440002DE9F84315
S2144015D0002839D00446002941D0022B4DD01F4662
S2144015E0904689463A4B9847EFF311864FF0800372
S2144015F072B683F31188BFF36F8FBFF34F8F62B617
S214401600A26BE36B9A4201D3022F58D194F845500F
S2144016106DB23A46494620462E4B9847B5F1FF3FB5
S21440162047D1A36C002B36D0394620462A4B9847E4
S214401630B8F1000F45D0002843D00120C8F800007C
S21440164086F31188BDE8F8834FF0800372B683F3C3
S2144016501188BFF36F8FBFF34F8F62B6FEE7006C03
S2144016600028BAD04FF0800372B683F31188BFF3D8
S2144016706F8FBFF34F8F62B6FEE7E06B0128AED0A8
S2144016804FF0800372B683F31188BFF36F8FBFF3BA
S2144016904F8F62B6FEE7636AABB104F124000F4B8E
S2144016A09847B8F1000F10D078B10120C8F8000074
S2144016B0C6E76B1C5BB284F845300120C0E70020CB
S2144016C0BEE70120BCE70120BAE70120B8E700BF2B
S2144016D03D104000151140009111400099234000F4
S2144016E02DE9F04784B0019290B10446D9B10E4638
S2144016F0544B984728BB019B5BB34FF0800372B6B0
S21440170083F31188BFF36F8FBFF34F8F62B6FEE748
S2144017104FF0800372B683F31188BFF36F8FBFF329
S2144017204F8F62B6FEE7036C002BE0D04FF080038D
S21440173072B683F31188BFF36F8FBFF34F8F62B6D5
S214401740FEE70027DFF82881DFF828A1DFF80091C0
S21440175031E00027F6E7314620463B4B9847013DAF
S214401760A563236963B104F11000384B984738B13C
S2144017704FF08052364B1A60BFF34F8FBFF36F8FD8
S214401780344B9847012004B0BDE8F087314B98476A
S2144017900020F8E702A8D04716E0002384F844303B
S2144017A01DE0002384F845301FE020462A4B98472A
S2144017B02A4B98470127C047A56B002DCBD1019BEC
S2144017C0002BE3D0002FE5D0224B9847244B984778
S2144017D0C04794F844305BB2B3F1FF3FDDD094F895
S2144017E045305BB2B3F1FF3FDBD01A4B984701A9B7
S2144017F002A81C4B9847C8B920461B4B9847002860
S214401800D3D0019904F12400184B98472046124B38
S2144018109847124B98470028CCD14FF08053C9F8D0
S2144018200030BFF34F8FBFF36F8FC3E720460A4B9E
S21440183098470A4B984720460B4B98470028B9D004
S2144018400020A0E7AD2640001D124000992340002E
S21440185004ED00E0610E400045124000D1204000FB
S2144018606D1F400049244000F510400015234000FD
S214401870150E4000312440002DE9F04385B001911B
S21440188068B10446036CABB14FF0800372B683F385
S2144018901188BFF36F8FBFF34F8F62B6FEE74FF0EE
S2144018A0800372B683F31188BFF36F8FBFF34F8FF9
S2144018B062B6FEE75E4B984760B9019B93B14FF026
S2144018C0800372B683F31188BFF36F8FBFF34F8FD9
S2144018D062B6FEE700252F46564EDFF88C91DFF8BD
S2144018E0608152E000252F46F6E7013BA36323685C
S2144018F013B9514B98476060236963B104F11000F7
S2144019004E4B984738B14FF080524D4B1A60BFF35C
S2144019104F8FBFF36F8F4B4B98470125284605B036
S214401920BDE8F08355B14FF0800372B683F311885B
S214401930BFF36F8FBFF34F8F62B6FEE7414B9847BA
S214401940ECE702A8C84729E0002384F8443030E09A
S214401950002384F8453032E0B04760683A4B9847F9
S2144019600546384B98473AE02046384B9847384B20
S214401970984709E02046354B9847354B98472046D0
S214401980344B984700283FD10127B047A36B002B24
S214401990ABD1019B002BC5D0002FD2D0294B984706
S2144019A02D4B9847B04794F844305BB2B3F1FF3FB5
S2144019B0CAD094F845305BB2B3F1FF3FC8D0214B54
S2144019C0984701A902A8254B98470028D2D120461F
S2144019D0204B98470028C7D02368002BBCD00199DD
S2144019E004F124001E4B98472046184B9847184B46
S2144019F098470028C8D14FF08053C8F80030BFF34E
S214401A004F8FBFF36F8FBFE7002D87D0094B9847A6
S214401A10636A53B1236B1968C1F105016068114BC5
S214401A209847084B9847002578E70021F6E700BF1F
S214401A30AD264000150E40003D2A40009923400048
S214401A4004ED00E0610E4000CD2640004512400007
S214401A50D1204000F51040006D1F40004924400052
S214401A6015234000492840003124400010B40B4B59
S214401A701B6853B10123094C54F8332032B101336B
S214401A80082BF9D15DF8044B70470023034A42F80F
S214401A90331002EBC3035860F4E700BFD80C402075
S214401AA070B504460D461646124B984794F8443097
S214401AB05BB2B3F1FF3F0DD094F845305BB2B3F163
S214401AC0FF3F0BD00C4B9847A36B5BB120460B4BAC
S214401AD0984770BD002384F84430EDE7002384F82F
S214401AE04530EFE73246294604F12400044B984738
S214401AF0ECE700BF150E4000610E40004512400066
S214401B0051234000084B1B681B683BB1064B1B68C3
S214401B10DB68DB685A68054B1A6070474FF0FF3247
S214401B20024B1A60704700BF5C0A40200C0B4020F6
S214401B3070B504460E461C4B1D681C4B1868043096
S214401B401B4B984748B9194B1A681A490B68D06A14
S214401B500122824023EA02030B60B4F1FF3F00D12A
S214401B609EB92C44114B1B685C60A54214D8124B9E
S214401B7018680E4B19680431104B9847104B1B6879
S214401B809C4201D20E4B1C6070BD084B1968043154
S214401B900C480D4B984770BD0C4B1868034B1968A2
S214401BA00431064B984770BD540B4020580A4020DD
S214401BB0110D4000DC0A40205C0A4020DD0C40004D
S214401BC00C0B40202C0B4020C50C4000600A4020E7
S214401BD080B5184DDFF87880DFF8789001E0164B36
S214401BE098472B68C3B1154F154EC047FB68DC6855
S214401BF0201DB047134A1368013B13602B68013B16
S214401C002B60114B9847206BDFF84CA0D0472046FE
S214401C10D0472B68002BE8D10C4B1B68012BDED934
S214401C204FF08053C9F80030BFF34F8FBFF36F8F2C
S214401C30D5E700BFCC0A4020E1334000400B4020AF
S214401C40110D4000C80A4020610E4000640A402042
S214401C50150E400004ED00E0D11040002DE9F04F95
S214401C6083B083460D460193DDF834A09600304697
S214401C70604B9847002800F08D80074658205D4B03
S214401C8098470446002800F0828007633246A52124
S214401C903846594B9847043E236B1E4426F00706A9
S214401CA02B7884F834302B7863B12B4604F1340219
S214401CB005F10901587802F8010F13F8010F08B131
S214401CC08B42F7D1002784F83D700C9D042D28BF29
S214401CD00425E562A564E76404F104084046DFF89D
S214401CE06C91C84704F11800C8472461C5F1050542
S214401CF0A5616462276584F85470019A5946304657
S214401D003E4B98472060BAF1000F01D0CAF8004019
S214401D103B4B98473B4A1368013313603A4B1B686A
S214401D20002B3AD0394B1B683BB9374B1B68DA6AF5
S214401D30E36A9A4201D8344B1C60354A1368013333
S214401D4013602364E06A334A1168012383400B43DF
S214401D50136000EB800041462F4B03EB80002F4B77
S214401D6098472F4B9847294B1B68002B3BD0264B58
S214401D701B68DA6AE36A9A4239D24FF08052294B9E
S214401D801A60BFF34F8FBFF36F8F01202CE03846A9
S214401D90254B98474FF0FF3026E01B4B1C601368DE
S214401DA0012BCAD11C4E3046204DA84706F11400E0
S214401DB0A84706F12800A84706F13C00A84706F1C8
S214401DC05000A8471A4F3846A8471A4E3046A847EC
S214401DD01948A8471948A8471948A847194B1F60EB
S214401DE0194B1E60A9E7012003B0BDE8F08F012023
S214401DF0FAE700BFA1104000C13D4000BD0D4000C5
S214401E00150E4000C80A4020580A4020280B4020A3
S214401E10D80A4020DC0A4020640A4020C50C400016
S214401E20610E400004ED00E0D1104000A90C4000D7
S214401E30E00A4020F40A4020140B4020400B40208B
S214401E402C0B40205C0A4020600A4020BF0C40001B
S214401E5038B5D0B10546194B1B68984226D0184B6A
S214401E6098476C69174B9847174B1B689C421FD086
S214401E70164B1B689C421DD0154B9C4210D0DCB1C3
S214401E80144B9C4218D0012038BD4FF0800372B6E8
S214401E9083F31188BFF36F8FBFF34F8F62B6FEE7B1
S214401EA0AB6A002B0CBF0320022038BD002038BD93
S214401EB0022038BD022038BD042038BD580A4020D4
S214401EC0150E4000610E40005C0A4020600A40202B
S214401ED02C0B4020400B402010B582B01A4B01938B
S214401EE0002300938222194919481A4CA04701281A
S214401EF004D0B0F1FF3F1CD002B010BD164B98473F
S214401F000128F6D14FF0800372B683F31188BFF3F1
S214401F106F8FBFF34F8F62B64FF0FF320F4B1A6092
S214401F2001220F4B1A6000220E4B1A600E4B984748
S214401F30E2E74FF0800372B683F31188BFF36F8FEA
S214401F40BFF34F8F62B6FEE7080B4020A0A14000CB
S214401F50D11B40005D1C4000152B40000C0B402060
S214401F60280B4020540B4020510F4000024A136873
S214401F7001331360704700BFD40A4020014B1868F5
S214401F80704700BF540B40202DE9F047414B1B687B
S214401F90002B77D1404B1D6801351D60D5B93F4BAE
S214401FA01B681B6853B14FF0800372B683F31188E9
S214401FB0BFF36F8FBFF34F8F62B6FEE7374A1168A5
S214401FC0374B186810601960364A1368013313603F
S214401FD0354B9847354B1B689D4218D20024344BEE
S214401FE01B68DB6A03EB83039B00324AD358022B01
S214401FF028BF0124304B1B680BB9304B9847304BF9
S2144020001B68002B0CBF20460120BDE8F08700244B
S214402010DFF88890DFF8B4802A4F1FE04FF0FF3299
S214402020224B1A60DBE7214A1360D8E706F1180016
S214402030C047F06A3A680123834013433B6000EB95
S214402040800051461B4B03EB80001F4B9847184BB4
S2144020501B68F26ADB6A9A4228BF0124D9F800302E
S2144020601B68002BDAD0D9F80030DB68DE6873686E
S2144020709D42D8D306F1040A5046C047B36A002BA7
S214402080D4D1D6E70C4A1368013313600B4B9847FC
S2144020900024B4E7D40A4020540B40205C0A402079
S2144020A0600A4020100B4020051B40000C0B4020CF
S2144020B0580A4020640A4020D00A4020E3334000BB
S2144020C0580B4020DC0A4020C50C4000110D400053
S2144020D0364B1B6853B94FF0800372B683F31188B2
S2144020E0BFF36F8FBFF34F8F62B6FEE72DE9F04127
S2144020F02F4B98472D4B1A68013A1A601B68002BE5
S21440210050D12C4B1B682BB900242B4B98472046AC
S214402110BDE8F0810024294F294E2A4D3B6803B381
S214402120FB68DC6804F11800B04704F10408404638
S214402130B047E06A2A680123834013432B6000EBD4
S21440214080004146204B03EB8000204B9847204BB5
S2144021501B68E26ADB6A9A42E0D301221D4B1A6092
S214402160DCE70CB11C4B98471C4B1C686CB11C4FF1
S214402170184E012501E0013C04D0B8470028FAD0AB
S2144021803560F8E70022154B1A60124B1B685BB1AE
S2144021904FF08052134B1A60BFF34F8FBFF36F8FD1
S2144021A00124B2E70024B0E70024AEE7D40A40207A
S2144021B0150E4000C80A4020610E4000140B402017
S2144021C0110D4000DC0A4020640A4020C50C400047
S2144021D0580A4020580B4020051B4000D00A40209B
S2144021E0891F400004ED00E010B5B8B10446104B1E
S2144021F01B6853B14FF0800372B683F31188BFF368
S2144022006F8FBFF34F8F62B6FEE70A4B98470021A9
S2144022102046094B9847094B984738B94FF08052AB
S214402220074B1A60BFF34F8FBFF36F8F10BD00BFD1
S214402230D40A40206D1F4000311B4000D120400092
S21440224004ED00E02D4B1B68002B2CD110B500226E
S2144022502B4B1A602B4B1B681B6B1A68B2F1A53FC1
S21440226003D15A68B2F1A53F21D0264B18681968A9
S2144022703431254B9847254B1B68B3FA83F3DBB2C2
S214402280C3F11F0303EB8302920021498A58BAB96F
S2144022904FF0800372B683F31188BFF36F8FBFF39E
S2144022A04F8F62B6FEE70122154B1A6070479A6858
S2144022B0B2F1A53FD9D1DB68B3F1A53FD5D1DAE776
S2144022C0134A9900C81802EB80004468646844606A
S2144022D0194402460832944209D003EB83030C4A61
S2144022E002EB83035B68DA68064B1A6010BD6068D1
S2144022F0074A02EB81025060EFE700BFD40A402055
S214402300580B4020580A4020C9334000DC0A402081
S214402310640A402050B94FF0800372B683F31188A8
S214402320BFF36F8FBFF34F8F62B6FEE710B50C4614
S214402330044B19681831044B984701212046034B3B
S214402340984710BD580A4020DD0C4000311B400025
S21440235038B578B114460D460C4B196818310C4BFD
S2144023609847002C21460CBF28464FF0FF30094BBB
S214402370984738BD4FF0800372B683F31188BFF399
S2144023806F8FBFF34F8F62B6FEE700BF580A4020FC
S214402390C50C4000311B400038B5C368DC6824B328
S2144023A004F1180528461A4B98471A4B1B683BBB46
S2144023B0251D2846164B9847E06A174A11680123A0
S2144023C083400B43136000EB80002946134B03EB1E
S2144023D08000134B9847134B1B68E26ADB6A9A42AD
S2144023E013D90120104B186038BD4FF0800372B6E9
S2144023F083F31188BFF36F8FBFF34F8F62B6FEE74C
S21440240029460A48064B9847E5E7002038BD00BFF6
S214402410110D4000D40A4020DC0A4020640A4020C7
S214402420C50C4000580A4020580B4020140B402052
S214402430034B1B680360034B1B684360704700BF39
S214402440100B4020540B4020A8B170B50546E9B1AA
S2144024500C461D4B98471D4B1A6869682368B3F1B4
S214402460FF3F2FD01A4800682E68864219D08A420D
S21440247017D301241BE04FF0800372B683F3118814
S214402480BFF36F8FBFF34F8F62B6FEE74FF0800308
S21440249072B683F31188BFF36F8FBFF34F8F62B668
S2144024A0FEE7521A9A4206D3002323600124094BC2
S2144024B09847204670BD9B1A23602846064B98478F
S2144024C00024F4E70024F2E7150E4000540B4020A9
S2144024D0100B4020610E4000312440000122014B89
S2144024E01A607047580B402070B50D461646044695
S2144024F0D0B12C6004F134026A60E26A2A61226B31
S214402500EA61226CAA60A26C6A610022AA61052B6D
S21440251019D0174A1268944209D02B73032B09D05E
S214402520B6B900232B8470BD114A1468E1E7002336
S2144025302B73F5E70F4B9847A36A0BB102232B7317
S2144025400D4B9847ECE720460C4B98472873E7E737
S214402550206B0378A52B08D1431C191A13F8012BBE
S214402560A52AFAD08908298470BD0021FAE700BF61
S214402570580A40206D1F4000D1204000511E4000A8
S2144025802DE9F04F83B00B6843B34B685B684B60F4
S21440259001F1080843450BD001920C464B68D3F82E
S2144025A00CB0054600274FF0010ADFF83C900DE0DE
S2144025B0CB684B60F0E76368DE68019B524629466D
S2144025C03046C84701372435B34508D063685B6852
S2144025D063609845EFD1E3686360ECE700273846D0
S2144025E003B0BDE8F08F00BFE92440002DE9F04776
S2144025F006460C461746244B9847244B1B68A34276
S2144026003FD8234B03F15005A3F1140800244FF0A4
S214402610010ADFF8849004EBC4005246294606EBD4
S2144026208000C8470444143D4545F4D1194B196809
S21440263004EBC400022206EB8000174DA847044472
S214402640164B196804EBC400022206EB8000A8472C
S214402650044404EBC4000422114906EB8000A8475A
S214402660044404EBC40003220E4906EB8000A8474E
S21440267004440FB100233B600B4B98472046BDE80F
S214402680F0870024F8E700BF6D1F4000C80A4020CE
S214402690640A40205C0A402081254000600A4020B1
S2144026A0400B40202C0B4020D1204000054B1B689F
S2144026B033B1054B1B68002B0CBF0220002070472F
S2144026C001207047280B4020D40A4020002850D0D4
S2144026D038B50446C26A28490968C96A8A423FD260
S2144026E08169002905DB24490968C96AC1F10501E9
S2144026F0816102EB8202214901EB820261699142CB
S21440270005D01D4A1268D26AE262012038BD251DF6
S21440271028461B4B984770B9E26A02EB82039B003F
S2144027201649CB583BB917480368012101FA02F213
S21440273023EA02020260104B1B68D86AE062114A24
S2144027401168012404FA00F30B43136000EB800089
S21440275029460A4B03EB80000B4B9847204638BD72
S214402760054A1268806CD36A98422CBF002001202C
S21440277038BD0020704700BF580A4020640A4020F9
S214402780110D4000DC0A4020C50C400000284DD00A
S21440279038B50446274A126890420AD04FF0800364
S2144027A072B683F31188BFF36F8FBFF34F8F62B655
S2144027B0FEE7C26C52B94FF0800372B683F31188BD
S2144027C0BFF36F8FBFF34F8F62B6FEE7013AC26426
S2144027D0C06AA16C88422BD052BB251D2846164B9A
S2144027E0984768B9E16A01EB81039B00134AD358C6
S2144027F033B91348036801228A4023EA0203036080
S214402800A06CE062C0F10503A3610D4A1168012483
S21440281004FA00F30B43136000EB80002946074B95
S21440282003EB8000074B9847204638BD0020704792
S214402830002038BD580A4020110D4000640A402050
S214402840DC0A4020C50C4000002858D038B5044665
S214402850C06C50B94FF0800372B683F31188BFF353
S2144028606F8FBFF34F8F62B6FEE7A26C8A4238BFC7
S2144028700A46E16A012841D191423FD0204800688B
S21440288084420AD14FF0800372B683F31188BFF3B7
S2144028906F8FBFF34F8F62B6FEE7E262A0690028F3
S2144028A002DBC2F10502A26101EB8101154A02EB8F
S2144028B0810162698A4221D1251D2846124B9847DC
S2144028C068B9E16A01EB81039B000E4AD35833B9DD
S2144028D00E48036801228A4023EA02030360E06A46
S2144028E00A4A1168012383400B43136000EB8000C3
S2144028F02946044B03EB8000054B984738BD70478C
S214402900580A4020640A4020110D4000DC0A40204E
S214402910C50C40002DE9F04784B004460023037000
S2144029203E4B1A680392186800EBC00080003C4B90
S214402930984700286FD0054603990022394B9847A0
S214402940039000230293029A039B9A4260D24FF070
S2144029500008DFF8E490344E45E0422706E053276F
S21440296004E0442702E0474600E05227029B03EB80
S214402970C30305EB830359682046C8472046B04743
S214402980082808D8204404F10902202300F8013B17
S2144029908242FBD1092004EB000A04F80080029B27
S2144029A0029A029903EBC30305EB83031B6901EB11
S2144029B0C10105EB81018968019102EBC20205EB7A
S2144029C08202128C00923A4618495046184CA0474C
S2144029D05046B0470AEB0004029B01330293029A2A
S2144029E0039B9A4214D2029B03EBC30305EB83037B
S2144029F01B7B013B032BB6D801A252F823F000BF45
S214402A006B2940005B2940005F2940006329400055
S214402A102846084B984704B0BDE8F087C80A4020CF
S214402A20A1104000ED2540004141400090A14000EB
S214402A3039404000D110400085404000054B1B689F
S214402A4023B1044B1A68D36C0133D364014B186826
S214402A50704700BF580A402008B541600061914267
S214402A600CD8D21A83699A4201D3012008BD011DB1
S214402A70094B1868094B9847002008BD9A4203D274
S214402A80994201D3012008BD011D054B1868034B30
S214402A909847002008BD00BF600B4020DD0C40007A
S214402AA05C0B402070B5104B9847104B1B6813B119
S214402AB00F4B984770BD0F4D28460F4EB0470F4CF2
S214402AC02046B0470E4B1D600E4B1C600022102166
S214402AD005200D4B9847054B18600028E8D00B4959
S214402AE00B4B9847E4E700BF150E4000900B402084
S214402AF0610E4000640B4020A90C4000780B40203B
S214402B005C0B4020600B402081134000A8A1400091
S214402B106D1A400010B582B00E4B98470E4B1B689E
S214402B206BB10E4B01930423009300234FF4827243
S214402B300B490C480C4CA04708B102B010BD4FF0F2
S214402B40800372B683F31188BFF36F8FBFF34F8F46
S214402B5062B6FEE7A52A4000900B4020940B40202A
S214402B60B0A14000952C40005D1C4000D8B130B567
S214402B7085B015460446154A106820B31A4600919B
S214402B8001950294052919DC114B984702284FF00D
S214402B9000030CBF089A1A4669460C4800680D4C5C
S214402BA0A04705B030BD4FF0800372B683F311885E
S214402BB0BFF36F8FBFF34F8F62B6FEE700236946C1
S214402BC0054CA047EDE70020EBE700BF900B402008
S214402BD0AD264000DD134000CD1540002DE9F047FE
S214402BE082B08046244B98470746244B1B68984241
S214402BF01BD30023C8F80030204B1F60384602B075
S214402C00BDE8F087002100910B46524620461C4CFA
S214402C10A04760B94FF0800372B683F31188BFF3C4
S214402C206F8FBFF34F8F62B6FEE7164D164E2B687A
S214402C301A68C2B1DB68D3F800A0DC6804F1040966
S214402C404846B047636A20469847E369012BEED171
S214402C50A36953449A45D5D263602461494628689F
S214402C600A4B9847E3E70A4A10680649086013602B
S214402C700123C8F80030BFE77D1F40008C0B402082
S214402C806D2B40005C0B4020110D4000DD0C4000D9
S214402C90600B40202DE9F04788B0754E754FDFF841
S214402CA0FC91DFF8FC8133681A68002A00F0CE8079
S214402CB0DB681C68B84704A86F4B98470546049BDA
S214402CC0002B44D1A04212D20022611B6B4B1868E5
S214402CD06B4B98476B4B984700283AD14FF0805340
S214402CE0C9F80030BFF34F8FBFF36F8F31E0654BAD
S214402CF098473368DB68D3F80CA00AF10400C04755
S214402D00DAF81C30012B04D0DAF8243050469847C5
S214402D101FE0DAF8181023462A46214450465A4DFA
S214402D20A8470028F0D0002100910B462246504686
S214402D30564CA0470028E7D14FF0800372B683F385
S214402D401188BFF36F8FBFF34F8F62B6FEE74D4BD0
S214402D5098474A4D4E4C06E007990698059B98477B
S214402D60049B002B08DA002204A92868A047002804
S214402D7099D0049B002BEFDBDDF818A0DAF814306E
S214402D8013B10AF10400C04703A83B4B9847049B85
S214402D90092BE8D801A252F823F000BFC52D400009
S214402DA0C52D4000C52D4000672D4000192E40001F
S214402DB0452E4000C52D4000C52D4000672D4000E3
S214402DC0192E4000059CDAF8181023460246214486
S214402DD050462D4CA0470028BCD0DAF82430504648
S214402DE09847DAF81C30012BB4D1DAF818200021C5
S214402DF000910B46059802445046244CA0470028B4
S214402E00A8D14FF0800372B683F31188BFF36F8F5B
S214402E10BFF34F8F62B6FEE70599CAF8181031B176
S214402E200346024601445046174CA04792E74FF0EF
S214402E30800372B683F31188BFF36F8FBFF34F8F53
S214402E4062B6FEE75046134B984783E7B84704A858
S214402E50094B98470546049B002B7FF478AF0E4BF2
S214402E601B681A68B2FA82F2520900242DE700BFA6
S214402E705C0B40206D1F4000DD2B4000900B402037
S214402E80A11A4000D1204000592A40006D2B400036
S214402E90E1164000D1104000600B402004ED00E0F9
S214402EA0110D400010B584B0064B6C460FCB07C4DE
S214402EB0237000231A46694603480068034CA0471F
S214402EC004B010BDB8A14000240D4020CD154000F0
S214402ED010B584B0064B6C460FCB07C42370002356
S214402EE01A46694603480068034CA04704B010BD24
S214402EF0C8A14000240D4020CD154000F0B583B059
S214402F0005460C46002301932A4B984213D02A4B81
S214402F10984218D0294B98421DD0294B9D4222D02A
S214402F20284B9D4227D0284B9D422ED0274B9D4272
S214402F3035D003B0F0BD1F46254E21463846B04733
S214402F400028FAD1E9E71F46214E21463846B047C9
S214402F500028FAD1E4E71F461D4E21463846B047C2
S214402F600028FAD1DFE71F46194E21463846B047BB
S214402F700028FAD1DAE71E46164D01A93046A84782
S214402F800028FAD1019B2370D3E71E46114D01A9B4
S214402F903046A8470028FAD1019B2370C9E71E4651
S214402FA00C4D01A93046A8470028FAD1019B237052
S214402FB0BFE700BF00080E40000A0E40001A0E4051
S214402FC0001C0E40004002400080024000C002400C
S214402FD0CB084000DF09400070B50C462A4B9842AB
S214402FE013D02A4B984219D0294B98421FD0294BD0
S214402FF0984225D0284B98422BD0284B984231D027
S214403000274B984237D0002070BD1E46254D21469E
S2144030103046A8470028FAD1012070BD1E46214DF3
S21440302021463046A8470028FAD1012070BD1E46EA
S2144030301C4D21463046A8470028FAD1012070BDD5
S2144030401E46184D21463046A8470028FAD1012092
S21440305070BD1E46144D21463046A8470028FAD17A
S214403060012070BD1E46104D21463046A847002818
S214403070FAD1012070BD1E460B4D21463046A8476A
S2144030800028FAD1012070BD00080E40000A0E400C
S214403090001A0E40001C0E400040024000800240D5
S2144030A000C00240B9084000C909400080B584B05D
S2144030B0144D154C154E09E000231A46194614487F
S2144030C00068144FB8476420134B98474FF4FA7281
S2144030D069462868A0470028F5D0314668460F4B19
S2144030E098470028E8D10E4968460C4B9847002878
S2144030F0E9D000231A4619460A480068054FB847E3
S214403100E1E700BF240D4020E1164000B8A1400092
S214403110180D4020DD134000E9214000CD4440001A
S214403120C8A14000200D40202DE9F04186B0002483
S214403130124E134D134F0EE006AB2344002403F803
S214403140144C2346224601A93868DFF84080C04721
S21440315064200D4988474FF4FA720DF11701306824
S214403160A8470028F4D09DF817300A2BE4D006AACA
S214403170224402F8143C0134EAE700BF1C0D40200C
S214403180E1164000240D4020E9214000CD154000C6
S21440319080B582B0032200210120284B9847284D55
S2144031A028600C20274CA0470C20A047264C002324
S2144031B04FF080424FF040512046244EB047012306
S2144031C04FF000424FF020512046B047204B00932E
S2144031D050234FF000420C2120461E4EB0474FF081
S2144031E0004120461C4B98471C4B4FF480521A60B7
S2144031F0802283F80C232B6813B91948194B98473B
S2144032000F4E194D104F04E04FF080413846174B93
S21440321098474FF4FA7421463068A8470128FAD1F7
S2144032204FF080413846124B98470028ECD04FF07C
S214403230804138460F4B9847EBE700BF811340006C
S214403240200D40209908400000120E4079054000AD
S214403250D12E4000A50640004706400000E100E0B1
S21440326094A24000E5364000791840007F044000B4
S21440327009064000830440002DE9F0410A20104B27
S2144032809847002301224FF040510E480E4CA0476D
S2144032900C4FDFF840800D4D02E040F6B830A847AE
S2144032A00324012631463846C047C820A847314641
S2144032B03846074B9847C820A847013CF2D1ECE770
S2144032C099084000000E0E4079054000E921400074
S2144032D07F0440008304400080B582B00322002172
S2144032E00120234B9847234D28600A20224B9847BD
S2144032F0224C09234FF400624FF020512046204EC6
S214403300B047204B009350234FF400620A212046DA
S2144033101D4EB0474FF4006120461C4B9847642230
S2144033204FF4006120461A4B98471A4B4FF4806280
S2144033301A60802283F80A232B6813B91648174B65
S21440334098470C4E164D174F02E04FF480733B6380
S2144033504FF4FA7421463068A8470128FAD1FB6B2F
S21440336013F4807FF1D04FF480737B63F0E700BFA7
S21440337081134000180D402099084000000E0E4072
S21440338079054000A52E4000A506400047064000AF
S2144033906504400000E100E094A24000E5364000AD
S2144033A07918400000120E4070B5044E044D054C8E
S2144033B03046A84740F6B830A047F9E7980B40207B
S2144033C015294000E921400008B50A460146024852
S2144033D0024B9847FEE700BFB0A24000E5364000EB
S2144033E0704770474FF0800372B683F31188BFF37F
S2144033F06F8FBFF34F8F62B6FEE7000070B582B0A6
S2144034000E480F4B984710F0010F01D102B070BD27
S21440341002AC002344F8083D084E0A4D214630468B
S214403420A8470028FAD102A9009B01F8013D0023D5
S2144034301A4605480068054CA047E7E7008002406A
S214403440C5094000DF0940001C0D4020CD15400056
S2144034502DE9F04F89B0644B9847644B984700225B
S21440346001212020624CA047624B186000221021A8
S2144034700A20A047604B18600B20DFF80482C04744
S2144034800A20C04710224FF000515C485C4CA047D1
S2144034904FF400124FF000615A48A0475A4AD2F8FB
S2144034A0143143F01003C2F814310E20C047574B76
S2144034B0574A1A60574E584F3760584D584B2B60F6
S2144034C04FF4E1330293C02303934FF40063049315
S2144034D00024059406940E20C047524A02A94C4840
S2144034E0514B98474A48DFF89C91C8474848DFF810
S2144034F09881C047DFF894B1DBF8003021469868E1
S214403500DFF88CA1D047DBF8003021465868D0471A
S2144035103F48C8473E48C0473760414B2B60012173
S2144035203B48424B9847424B802283F80E234FF449
S21440353080421A600194009423464FF400723D493D
S2144035403D483E4CA047012802D03D483D4B984759
S2144035500023019300934FF480723B493B48374C1D
S214403560A047012802D03A48364B9847002301939B
S21440357000934FF4807237493748304CA0470128B3
S21440358002D033482F4B98470023019300934FF4C3
S214403590807232493248294CA047012802D02C4834
S2144035A0284B98470023019300934FF480722D498F
S2144035B02D48224CA047012802D02C48214B984742
S2144035C00023019300934FF48072294929481B4CED
S2144035D0A047012802D028481A4B9847274B9847BF
S2144035E0002009B0BDE8F08FD5014000D102400070
S2144035F0811340001C0D4020240D402000100E403A
S21440360087044000000E0E4000800840D40C402046
S21440361000800240D00C4020D92F4000CC0C4020E7
S214403620FD2E400080D1F00861094000C1094000ED
S21440363000E100E0D8A14000A93340005D1C4000F6
S214403640E0A14000E536400000A24000D9324000EC
S21440365004A2400028A240007932400030A2400038
S2144036609131400038A240002931400040A240003D
S21440367064A24000AD3040006CA24000D91E40001D
S21440368099084000B5094000BB0940000C004020A6
S214403690993E400070B50F4E0F4D761BB61018BFC2
S2144036A0002405D0013455F8043B9847A642F9D18A
S2144036B00A4E0B4D761B06F05BFFB61018BF002473
S2144036C006D0013455F8043B9847A642F9D170BD60
S2144036D070BD00BF7CA540007CA5400084A540008E
S2144036E07CA540000FB400B5074983B004AB08681A
S2144036F053F8042B8168019302F062FA03B05DF838
S21440370004EB04B0704700BF0C004020024B01465B
S214403710186800F00BB800BF0C004020024B014672
S214403720186804F029BB00BF0C0040202DE9F04F7C
S21440373001F10B06162E83B0054640F29E8036F009
S214403740070600F1BD80B14200F2BA8000F086FB69
S214403750B6F5FC7FC0F09382730A00F0B880042B65
S21440376000F27981B30903F1390003F1380EC30042
S214403770BF4F3B44A3F108015C68A14206D10CE070
S214403780002A80F2AA80E468A14206D0636823F04B
S21440379003039A1B0F2AF3DD70463C69DFF8E4E228
S2144037A0744500F0AB81636823F003039A1B0F2A2D
S2144037B000F39081002AC7F814E0C7F810E080F2C2
S2144037C09D80B3F5007F80F06181DB0803F1010C3A
S2144037D099107A6857F83C80C4F8088001238B40DB
S2144037E007EBCC0113430839E1607B6047F83C4067
S2144037F0C8F80C408210012494409C4200F28B8012
S2144038001C4206D120F0030064001C4200F1040074
S214403810FAD007EBC009CC468046DCF80C309C4515
S21440382007D16DE1002A80F27B81DB689C4500F081
S2144038306781596821F003018A1B0F2AF2DDD3F80D
S2144038400CC0D3F8088000939C19284646F0010621
S21440385042F001055E60C8F80CC0CCF808807C6178
S2144038603C61C4F80CE0C4F808E065605A5000F0CB
S214403870FBFA009B03F108041EE0102920D800F054
S214403880EDFA102618230220794F3B44A3F1080294
S2144038905C68944200F03D816368E168A66823F066
S2144038A00303234428465A68F16042F001028E60C2
S2144038B05A6000F0D9FA0834204603B0BDE8F08FCD
S2144038C000240C2320462B6003B0BDE8F08F402038
S2144038D04FF400734FF03F0E4AE72344E1685A68BE
S2144038E0A66842F00102F16028468E605A6000F0F9
S2144038F0BBFA0834204603B0BDE8F08F2344284680
S2144039005A6842F001025A6000F0AEFA0834204687
S21440391003B0BDE8F08FBC68636823F00308B04589
S21440392004D3A8EB06030F2B00F38580DFF85891ED
S214403930504BD9F800201B680132334404EB080A88
S21440394000F0558103F580530F3323F47F6B2BF043
S2144039500F0B5946284600F08DFA411C024600F0EF
S214403960FC80824500F2F780434B19685944196041
S21440397000F04D81D9F8000001301BBFA2EB0A0AC7
S2144039805144C9F80020196012F0070100F0158173
S214403990C1F10800C1F580510244083102EB0B0921
S2144039A0C9F30B09A1EB0909494628460193009241
S2144039B000F060FA431C9DE80C0000F04381801A3A
S2144039C0484440F001001968BA604944BC4250601F
S2144039D0196017D0B8F10F0F40F2FB806068A8F16D
S2144039E00C0222F0070204EB020E00F001004FF03A
S2144039F0050C10430F2A6060CEF804C0CEF808C00D
S214403A0000F217811D4BBC681A68914288BF196046
S214403A101B4B1A689142626888BF196022F0030205
S214403A209642A2EB060301D80F2B04DC284600F092
S214403A301BFA002440E7A21943F0010346F00106B2
S214403A4066602846BA60536000F00EFA0834204696
S214403A5003B0BDE8F08F142B71D9542B00F2A3802D
S214403A60330B03F16F0003F16E0EC30080E600BF18
S214403A7038044020C80C4020980C4020C00C402001
S214403A80C40C402040044020400840205A0A042AE3
S214403A905BD9142A00F2AE8002F15C01C9005B32A9
S214403AA007EB010C7958ACF1080C8C4500F0888087
S214403AB04A6822F00302934273D289688C45F7D154
S214403AC0DCF80C207B68E260C4F808C09460CCF850
S214403AD00C408FE6A11946F0010C42F00106C4F8EE
S214403AE004C0284679613961C1F80CE0C1F808E0A5
S214403AF04E60E25000F0B8F90834DDE67B6879E6BF
S214403B0008F1010818F0030F0CF1080C7FF485AE9D
S214403B102DE0DC68A34208BF02303FF43EAEBBE671
S214403B2019441C464A68DB6854F8086F42F00102A4
S214403B304A602846F3609E6000F096F9BCE603F1C2
S214403B405C0003F15B0EC30012E69A0902F13901EC
S214403B50C9003832A4E7BC4254D0BC68626822F040
S214403B6003025DE759F80839994540F0868010F021
S214403B70030F00F1FF30F5D17B6823EA04037B6036
S214403B8064009C423FF6C7AE002C3FF4C4AE1C42D5
S214403B9040467FF43EAE64001C4200F10400FAD07A
S214403BA037E68C468CE7B3F5AA7F15D8F30B03F1BE
S214403BB0780003F1770EC300DAE54FF48051EDE666
S214403BC07B689210012101FA02F213437B60624641
S214403BD079E70123536029E740F25452934222D8B2
S214403BE0B30C03F17D0003F17C0EC300C0E503F186
S214403BF0100BAEE6542A29D81A0B02F16F01C90001
S214403C006E324DE7204B196859441960B2E6CAF344
S214403C100B0000287FF4AEAE08EB0B03BA6843F007
S214403C2001035360EEE67F204FF47E734FF07E0E26
S214403C309EE504F108012846009304F09DF8009B99
S214403C401968DFE601204FF00009BCE6B2F5AA7F0E
S214403C5005D8DA0B02F17801C900773220E740F246
S214403C6054518A4205D89A0C02F17D01C9007C3233
S214403C7016E74FF47E717E2212E77B6880E7F008F5
S214403C8006F1080300E600BF980C4020844641EA4F
S214403C90000313F003036DD1403A41D351F8043B7F
S214403CA040F8043B51F8043B40F8043B51F8043BD1
S214403CB040F8043B51F8043B40F8043B51F8043BC1
S214403CC040F8043B51F8043B40F8043B51F8043BB1
S214403CD040F8043B51F8043B40F8043B51F8043BA1
S214403CE040F8043B51F8043B40F8043B51F8043B91
S214403CF040F8043B51F8043B40F8043B51F8043B81
S214403D0040F8043B51F8043B40F8043B51F8043B70
S214403D1040F8043B51F8043B40F8043B403ABDD2DF
S214403D20303211D351F8043B40F8043B51F8043B81
S214403D3040F8043B51F8043B40F8043B51F8043B40
S214403D4040F8043B103AEDD20C3205D351F8043B10
S214403D5040F8043B043AF9D2043208D0D2071CBFDC
S214403D6011F8013B00F8013B01D30B880380604605
S214403D70704700BF082A13D38B078DD010F003037B
S214403D808AD0C3F10403D21ADB071CBF11F8013BEB
S214403D9000F8013B80D331F8023B20F8023B7BE73A
S214403DA0043AD9D3013A11F8013B00F8013BF9D265
S214403DB00B7803704B7843708B78837060467047FF
S214403DC070B4860746D0541E002A41D0CAB2034675
S214403DD002E014F1FF343BD303F8012B9D07F8D1E2
S214403DE0032C2ED9CDB245EA05250F2C45EA0545CC
S214403DF019D903F110022646103E0F2E42F8105CE9
S214403E0042F80C5C42F8085C42F8045C02F110028E
S214403E10F2D8A4F1100222F00F0204F00F04103280
S214403E20032C13440DD91E462246043A032A46F86C
S214403E30045BFAD8221F22F003020432134404F033
S214403E4003042CB1C9B21C4403F8011B9C42FBD1AD
S214403E5070BC704714460346C2E700BF014804F0F2
S214403E6033BA00BF380D4020014804F02FBA00BFD7
S214403E70380D402038B5074C0023054608462360D9
S214403E80FCF7EAFE431C00D038BD2368002BFBD06D
S214403E902B6038BD4C0D402000290CBF022200226A
S214403EA04FF4806300F000B82DE9F043614C25687C
S214403EB083B004460F4690461E4615B1AB6B002BAA
S214403EC064D0B8F1020F06D0B8F1010F00F29F801F
S214403ED0002EC0F29C80636ED80734D52146284613
S214403EE003F0CCFD216B41B104F14003994202D06E
S214403EF0284603F041FF00232363B4F90C30002228
S214403F00A26162601A063AD423F44A6323F003039C
S214403F10B8F1020FA3811DD001AB6A462146284660
S214403F2004F0D6F9A3891843A081002E32D1009E12
S214403F303046FFF7EBFB074600286BD0A38943F0DB
S214403F408003A38128E0A3899905C7D4A06D04F017
S214403F50BBF9C3E70025616E002604F1430243F037
S214403F6002030120A660CE07A38122602261606121
S214403F7001D498053ED5284603B0BDE8F0832169B4
S214403F80284603F0F9FEB4F90C30BDE7284603F0A6
S214403F90CDFD96E7002FCBD0AB6B002B33D0009BEC
S214403FA0B4F90C2027609E421CBF42F40062A281F6
S214403FB0B8F1010F04BF42F00102A28192B212F0A2
S214403FC00803276166610ED0D1071AD5656E764222
S214403FD0002315F00105A661A36009D000252846F8
S214403FE003B0BDE8F083A360656E15F00105F5D11A
S214403FF09305C0D4A06D04F069F9284603B0BDE827
S214404000F083A660F0E7284603F090FDC7E74FF040
S214404010FF35B0E7DDF80090B14504D04846FFF7DD
S21440402075FB074620B9B4F90C304FF0FF3592E7E0
S2144040304E4683E70C0040200EB4F0B59CB021AB52
S2144040400F4953F8042B019305466FF00044086867
S21440405002954FF402774FF6FF7602A90695ADF823
S214404060147004940794ADF8166000F03BFB029B76
S21440407000221A701CB0BDE8F04003B0704700BF85
S2144040800C00402080EA0102844612F0030F4FD114
S21440409011F0030F32D14DF8044D11F0040F51F8D2
S2144040A0043B0BD0A3F101329A4312F0803F04BF89
S2144040B04CF8043B51F8043B16D100BF51F8044B72
S2144040C0A3F101329A4312F0803FA4F101320BD1A2
S2144040D04CF8043BA24312F0803F04BF51F8043B27
S2144040E04CF8044BEAD023460CF8013B13F0FF0F84
S2144040F04FEA3323F8D15DF8044B704711F0010FB7
S21440410006D011F8012B0CF8012B002A08BF704787
S21440411011F0020FBFD031F8022B12F0FF0F16BF7E
S2144041202CF8022B8CF8002012F47F4FB3D1704746
S21440413011F8012B0CF8012B002AF9D1704700BF6B
S21440414090F800F06DE9024520F007016FF0000C92
S21440415010F0070491F820F040F049804FF000043A
S2144041606FF00700D1E9002391F840F000F1080015
S21440417082FA4CF2A4FA8CF283FA4CF3A2FA8CF34D
S2144041804BBBD1E9022382FA4CF200F10800A4FAB4
S2144041908CF283FA4CF3A2FA8CF3E3B9D1E9042308
S2144041A082FA4CF200F10800A4FA8CF283FA4CF33F
S2144041B0A2FA8CF37BB9D1E9062301F1200182FAF9
S2144041C04CF200F10800A4FA8CF283FA4CF3A2FAFF
S2144041D08CF3002BC6D0002A04BF04301A4612BA0D
S2144041E0B2FA82F2FDE8024500EBD2007047D1E910
S2144041F0002304F00305C4F100004FEAC50514F09F
S214404200040F91F840F00CFA05F562EA05021CBF6F
S21440421063EA050362464FF00004A9E72DE9F04142
S2144042204FF0010E744600254FF0FF362B198B4297
S21440423000EB06070DD23F5D10F803C0BC452DD2FB
S2144042401D460124A3EB060E2B198B4200EB0607F6
S214404250F1D34FF00108C2F800E0444600254FF085
S214404260FF372B19994200EB070E0ED91EF804E0D3
S21440427010F803C0F44518D91D460124A3EB0708DF
S2144042802B19994200EB070EF0D80137701C874275
S21440429024BFC2F800803846BDE8F0810CD04FF00D
S2144042A0010E2E4674467544C0E70BD04FF0010809
S2144042B02F4644464544D4E7744512BF01341D4654
S2144042C00124B3E7444512BF01341D460124C8E724
S2144042D02DE9F04FADF2144D164605468B46104676
S2144042E0194603AA1C46FFF799FF03AB81460DF219
S2144042F00C4243F8044F9342FBD14CB1631E721EEE
S21440430004A812F8011F40F8213013F1FF33F8D209
S21440431003994A463144304604F0BAF800286FD133
S21440432009F1FF330093F3188246019323468046F3
S214404330544658469A4608EB0A073A1A002128443B
S21440434004F056F8002856D1002F54D0EB1904AA92
S21440435013F8013C52F823304BB124B1039A9342F0
S21440436001D2AAEB0203984400243846E3E74C45C2
S21440437023460AF1FF3E38BF4B46734513D208EB3F
S214404380030216F803C0A85C84452A4406EB0301E2
S21440439006D02CE011F801CF12F8010F844526D143
S2144043A001337345F6D34C45009980F08980009BD5
S2144043B008EB0302019BA85C1B7898422A447FD1F5
S2144043C0019804F1FF3B06E010F801CD12F801ED2C
S2144043D0F44503D119464B1E9B45F5D101348C421A
S2144043E070D8039C3846A044AAEB0404A3E7C9F15E
S2144043F001029044B7E700200DF2144DBDE8F08F5F
S214404400A4EB09034B4538BF4B46013309F1FF384F
S214404410039306EB080358464FF0000ACB469946EE
S2144044200AEB04073A1A0021284403F0E1FF00286B
S214404430E1D1002FDFD0EB1904AA13F8013C52F863
S2144044402330A3BB611E8B4515D20AEB0B0216F830
S2144044500B3015F802E09E452A4406EB0B005B46FF
S21440446006D027E010F801CF12F801EFF44521D12D
S21440447001338B42F6D3B8F1FF3F11D00AEB080266
S21440448099F80010AB5C99422A440FD14B4605E0A0
S21440449013F8010D12F8011D884207D1B342F7D137
S2144044A005EB0A000DF2144DBDE8F08F039B9A44CD
S2144044B03846B5E7CBF1010292449A443846AFE716
S2144044C049468BE705EB080096E700BF0278002ACE
S2144044D000F001812DE9F04F91F8008085B0444608
S2144044E0B8F1000F16D0864601F1010C012703E013
S2144044F013F8014B6CB19C46A24214BF002707F04C
S21440450001071EF8012F6346002AF1D19CF80030BF
S214404510FBB917B105B0BDE8F08F0E4605464146DB
S2144045200130ACEB060404F02BFD074688B1012CA5
S214404530F0D02819874294BFC11B01211F2C8B46FF
S2144045400BD9234632463846FFF7C2FE05B0BDE8D3
S214404550F08F002005B0BDE8F08F03AA2146304614
S214404560FFF75CFE0399804602463144304603F02E
S2144045708FFF002857D108F1FF330093F318814688
S214404580054601935846B2466619321A0021384409
S21440459003F02EFF0028DCD1002EDAD0C845434673
S2144045A038BF4B469C4212D95A191AF80310B85CC9
S2144045B081423A440AEB030E06D02CE01EF8010F67
S2144045C012F8011F884226D101339C42F6D1C845D5
S2144045D0009940F28380009BEA18019BB85C1B78E8
S2144045E098423A447AD1019809F1FF3B06E010F828
S2144045F001CD12F801EDF44503D119464B1E5B453B
S214404600F5D109F10109894557D8039B30461D4429
S214404610A4EB0309B8E7C8F1010215441D444FF066
S21440462000093046B0E7A4EB0803434538BF43468D
S214404630013308F1FF39039306EB0903584600257A
S214404640BB469A4667193A1A0021584403F0D0FEF2
S21440465000287FF47EAF002F3FF47BAF444515D94A
S21440466008EB050216F808301BF8020098425A4438
S21440467006EB0801434606D023E011F801EF12F896
S214404680010F86451DD101339C42F6D1B9F1FF3F5B
S21440469012D005EB09029AF800301BF80210994236
S2144046A05A4414D1534605E013F8010D12F8011D83
S2144046B088420CD1B342F7D15F46781905B0BDE8C1
S2144046C0F08FC8F1010215441D443846BAE7039BF3
S2144046D038461D44B6E70B7813B97047414690E715
S2144046E0002070472DE9F04FC3B00C460B91924620
S2144046F00F930C9003F0D6FD03681A931846FFF705
S2144047001FFDA3891990190603D52369002B01F0D4
S214404710038000230DF1C809139315931493279330
S214404720269318931B930993CDF89490C8461693F6
S21440473017939AF800305446E3B1252B02D119E07E
S214404740252B03D014F8013F002BF9D1A4EB0A0522
S21440475085B1269B279AC8F800A001332A44072B28
S214404760C8F80450279226937FDC08F10808099B76
S2144047702B4409932378002B7FD000231A468DF8CC
S214404780773019460D939B464FF0FF3063780A907A
S21440479004F1010A0AF1010AA3F12000582800F2A8
S2144047A0C183DFE810F03802BF03BF034002BF03F7
S2144047B0BF03BF03BF03BF03BF0345020302BF03DC
S2144047C05D006B02BF0386029D039D039D039D0310
S2144047D09D039D039D039D039D03BF03BF03BF032E
S2144047E0BF03BF03BF03BF03BF03BF03BF033703FC
S2144047F05703BF035703BF03BF03BF03BF0398035B
S214404800BF03BF03AD03BF03BF03BF03BF03BF0365
S2144048105902BF03BF031E03BF03BF03BF03BF034B
S214404820BF03BF03BF03BF03BF03BF03C602DB0212
S2144048305703570357038B02DB02BF03BF039002A5
S214404840BF039D02CC01B4020802BF03E101BF03CF
S2144048507E00BF03BF030D020D980F9340420D909C
S2144048604BF0040B9AF8003094E725AA0B990C9865
S21440487004F0FAFB40B9C84679E7279B23B10C9869
S2144048800B9925AA04F0F0FB0B9B9B8913F0400F75
S214404890099B18BF4FF0FF330993099843B0BDE812
S2144048A0F08F1BF0200F119340F0DD810F9A1BF024
S2144048B0100F134640F06E851BF0400F00F06A85DF
S2144048C014880432002501230F9200278DF8777054
S2144048D00A994A1C00F065822BF08002079254EA3F
S2144048E0050240F06482002940F03C84002B40F0F2
S2144048F0D7841BF001030E9300F0048642AE3023AB
S21440490006F8413D0A9B0E9A9342B8BF1346089359
S2144049100023129317B1089B01330893079B13F0AB
S2144049200203109302D0089B02330893079B13F0B0
S214404930840540F00E830D9B089AA3EB020BBBF157
S214404940000F40F30683BBF1100F279C269A29DD03
S21440495043462146A84610270C9C0B9D06E0ABF12B
S214404960100BBBF1100F03F1080318DD0132B748F6
S21440497026921031072A279183E88100EFDD25AA89
S2144049802946204604F070FB00287FF47DAFABF14B
S214404990100BBBF1100F2799269A4B46E6DC45468E
S2144049A00C4698460132A94B26925C44072A279427
S2144049B088E8080800F398849DF8777008F108089E
S2144049C077B1269B013301340DF177010122072B85
S2144049D02794269388E8060000F3DB8308F108084E
S2144049E0109B6BB1269B013302341EA90222072B73
S2144049F02794269388E8060000F3D68308F1080833
S214404A00802D00F015830A9B0E9A9F1A002F36DDE4
S214404A10102F269B8E4D27DD42462146B0464FF04E
S214404A20100B2E460C9C0B9D04E0103F102F02F1FD
S214404A30080215DD01331031072B2791269382E8B3
S214404A404008F2DD25AA2946204604F00DFB002842
S214404A507FF41AAF103F102F2799269B4A46E9DC71
S214404A6035460C464646904601333C44072B279431
S214404A70269388E8A00000F3818308F10808079B86
S214404A80DF0500F16882269B0E99C8F80060013366
S214404A900C44072B2794C8F80410269300F34D8344
S214404AA008F10808079B5B073AD50D9B089A9D1AA4
S214404AB0002D35DD102D269B20DD10260C9FDDF8C1
S214404AC02CB004E0103D102D08F1080816DD013327
S214404AD05E4A26931034072B279488E84400F1DD7D
S214404AE025AA5946384604F0BFFA00287FF4CCAED3
S214404AF0103D102D279C269BC846E8DC0133534AC0
S214404B0026932C44072B279488E8240008DD25AA02
S214404B100B990C9804F0A8FA00287FF4B5AE279CB1
S214404B20099B0D9A08998A42ACBF9B185B1809935B
S214404B30002C40F00D8300232693C846F9E51193D8
S214404B401BF0200340F0E3811BF0100240F02E845F
S214404B501BF0400300F02A840F9913460A4604329D
S214404B600C880F920025B0E60F9A11931668002421
S214404B708DF87740151D002E00F0A7860A9A531C24
S214404B8000F009862146304603F032FC002800F04B
S214404B90E186831B0E930A940F95CDF81CB023EA4A
S214404BA0E373089312949DF87770B3E69AF8003052
S214404BB001222B21EEE54BF0200B9AF80030E9E578
S214404BC01193002A40F09587224B18931BF0200F34
S214404BD040F011810F9A1BF0100F134640F0E1830E
S214404BE01BF0400F00F0DD83043314880F9300253C
S214404BF01BF0010F00F00C8154EA050300F0088119
S214404C0030239DF844208DF878308DF879204BF08D
S214404C10020B022359E69AF8003000297FF4BAAD19
S214404C2001222021B6E54BF0010B9AF80030B1E5A1
S214404C300F9C23680D9318460028234603F104036F
S214404C40FFF60AAE0F939AF80030A3E510A3400093
S214404C5020A34000F0A240004BF0100B1BF0200FAA
S214404C6011933FF423AE0F9D073525F0070303F15C
S214404C700802D3E900450F92012326E69AF8003051
S214404C802A2B0AF1010400F02787A3F130000928F7
S214404C90A24600F2AD8600231C461AF8013B04EB00
S214404CA0840400EB4404A3F130000928F5D90A94A3
S214404CB072E54BF0800B9AF800306BE54BF0400BFA
S214404CC09AF8003066E59AF800306C2B03BF9AF8E5
S214404CD001304BF0200B0AF1010A4BF0100B59E55E
S214404CE0002A40F011871BF0200F40F0F9841BF09B
S214404CF0100F40F0AC841BF0400F00F0A8840F9AD1
S214404D00136804320F92BDF824201A8011E50F99DB
S214404D10B34B0C6818933022782304318DF87930E1
S214404D2011934BF0020B0F9100258DF8782002234B
S214404D30CBE50F9911930A688DF8A02000230A4608
S214404D401F468DF87730043201230893CDF81CB007
S214404D500A9712970F920E9328AEDFE51193002A1A
S214404D6040F0EA861BF0200F5DD11BF0100F40F09C
S214404D7008831BF0400F00F004830F99B1F9004000
S214404D800431E51722462B460F91002A73F10003A3
S214404D9058DB0A999DF877704A1C4FF001037FF460
S214404DA09BAD54EA050200F0DF81CDF81CB0012B24
S214404DB000F07B82022B40F0068218984E4623096C
S214404DC004F00F0143EA05732A091C461546435C66
S214404DD006F8013D54EA0503F1D1A9EB06030E930C
S214404DE090E51193002A40F0A3867E4B18931BF063
S214404DF0200F3FF4EFAE0F9D073525F0070303F174
S214404E0008021BF0010F0F92D3E900457FF4F4AE81
S214404E1002235AE51193002A40F086864BF0100B89
S214404E201BF0200FA1D00F9D073525F00705D5E9CB
S214404E300023002A05F108011D4673F100030F9177
S214404E401446A6DA2D27644265EB45058DF8777043
S214404E5001233DE51193002A40F062860F9D0735F9
S214404E6025F0070303F108020F921A6815925B6853
S214404E701493149B159D23F00044284621464FF07A
S214404E80FF32594B04F0BEFF002840F04A832846C4
S214404E9021464FF0FF32544B04F096FF002840F076
S214404EA0408315A80DC8149904F084FF002840F0EC
S214404EB030859DF877704D4E4D4B2BF08000079017
S214404EC011980322002108920A914728D8BF1E460F
S214404ED00E9212911EE54BF0080B9AF8003059E4FA
S214404EE0A3F1300000231C461AF8013B04EB84046F
S214404EF000EB4404A3F130000928F5D90D944BE4A7
S214404F004BF0100B11931BF020033FF41DAE0F9D8A
S214404F10073525F0070303F10802D3E900450F9251
S214404F200023D2E41193002A40F0E785119A002A24
S214404F303FF4A3AC002301211F4608918DF8A02022
S214404F40CDF81CB08DF877300A9312930E9128AEA8
S214404F50E4E4279C34E5119B652B40F3A78015A815
S214404F600DC8149904F01CFF002800F05081269BC1
S214404F70204AC8F80020013301340122072B279429
S214404F802693C8F8042000F36A8308F108081F9B9C
S214404F90139A279C934203DB079BDD077FF582AD80
S214404FA0269B19991A9AC8F8002001330C44072BFF
S214404FB0C8F804102794269300F39E8308F1080847
S214404FC0139B5E1E002E7FF76DAD102E269B0A4D5E
S214404FD040F3F58122461027DDF830B00B9C13E0F5
S214404FE0F0A24000DCA24000FFFFEF7FD0A24000CE
S214404FF0CCA240000CA3400020A3400008F10808C3
S214405000103E102E40F3DA8101331032072B2792E0
S214405010269388E8A000F1DD25AA2146584604F0EC
S21440502023F800287FF430AC279A269BC846E7E74B
S2144050300D9B089A9F1A002F7FF7E5AC102F269BF2
S214405040B64D27DD42462146B0464FF0100B2E4661
S2144050500C9C0B9D04E0103F102F02F1080215DD5A
S21440506001331031072B2791269382E84008F2DD62
S21440507025AA2946204603F0F7FF00287FF404AC13
S214405080103F102F2799269B4A46E9DC35460C46AA
S2144050904646904601333C44072B2794269388E89F
S2144050A0A00000F3328208F10808ACE4139B269F68
S2144050B0012B40F3FE81013701340123072F27944B
S2144050C02697C8F80060C8F8043000F3038208F159
S2144050D00808199A1A9BC8F8003001371444072F5D
S2144050E027942697C8F8042000F3008208F10808A1
S2144050F015A80DC8149904F053FE139B002840F0E1
S2144051000181013B013701361C44072F269727941F
S214405110C8F80060C8F8043000F3278108F1080892
S2144051201B9AC8F804200137144421AB072F279454
S2144051302697C8F800307FF7B3AC25AA0B990C9891
S21440514003F092FF00287FF49FAB279CC846A9E453
S21440515025AA0B990C9803F087FF00283FF4EBAC88
S214405160FFF792BBDDF81CB0012B00F03481022B18
S21440517025D1CDF81CB0002400251EE625AA0B99A3
S2144051800C9803F071FF00287FF47EAB279CC8463E
S21440519075E425AA0B990C9803F066FF00287FF467
S2144051A073AB279CC8461BE425AA0B990C9803F0C2
S2144051B05BFF00287FF468AB279CC84620E4CDF808
S2144051C01CB000240025494600E03146E20842EA89
S2144051D04572E80804F0070305461446303354EA9F
S2144051E0050201F8013C01F1FF36EED1079AD207DD
S2144051F07FF5F3AD302B3FF4F0AD0239302306F89F
S214405200013CA9EB01030E930E46FFF77BBB1F99AB
S214405210002940F32E82129B139A9342A8BF13464E
S214405220002B1F460DDD269BC8F8006001333C442A
S214405230072B2794C8F80470269300F31F8308F1C1
S2144052400808129B002FA8BFDB1B002B1F4640F30D
S214405250D680102F269B314D40F3ED8142462146A5
S214405260B0464FF0100B2E460C9C0B9D04E00832C7
S214405270103F102F40F3DB8101331031072B27916D
S214405280269382E84008F2DD25AA2946204603F008
S214405290EBFE00287FF4F8AA2799269B4A46E7E7C4
S2144052A00A9B0E934E46FFF72DBB002D08BF0A2CD7
S2144052B0C0F08F804E46204629460A22002304F03E
S2144052C0DFFD303206F8012D2046294600230A220B
S2144052D004F0D6FD04460D4654EA0503EBD1A9EB8F
S2144052E006030E93FFF70EBB25AA0B990C9803F006
S2144052F0BBFE00287FF4C8AA9DF87770279CC84656
S214405300FFF75EBB5E1E002E7FF70AAF102E034DE2
S21440531022DD22464FF0100B0C9C06E020A34000F6
S214405320103E102E08F1080815DD01371032072F01
S2144053302792269788E82008F2DD25AA0B99204672
S21440534003F092FE00287FF49FAA103E102E279A64
S214405350269FC846E9DC144601373444072F279475
S214405360269788E860007FF7D9AE25AA0B990C9857
S21440537003F07AFE00287FF487AA279C269FC8461B
S214405380CEE60F9A146813460433E5170F93224669
S2144053902B46FAE404321C680F9201230025FFF7DF
S2144053A094BA1C6804330F93002521E40F990A46EB
S2144053B004320C680F920025FFF787BA1446013373
S2144053C03444072B2794269388E860007FF768AB21
S2144053D0B3E6DDF81CB0CDF81CB042AE3034012345
S2144053E006F8414D0E93FFF78DBA25AA0B990C98F7
S2144053F003F03AFE00287FF447AA279CC8461F9A27
S214405400139B9A4244DB079BD90741D4139B1298BF
S2144054109A1A1D1A9542A8BF1546002D0EDD2699EC
S214405420C8F80450013106442C440729C8F80060E7
S2144054302794269100F33B8208F10808002DACBF64
S214405440561B1646002E7FF72DAB102E269BB04DD2
S214405450B5DD22461027DDF830B00B9C04E008F19D
S2144054600808103E102EA9DD01331032072B279274
S214405470269388E8A000F2DD25AA2146584603F088
S214405480F3FD00287FF400AA279A269BC846E8E743
S214405490269B19981A99C8F8001001330444072B24
S2144054A02794C8F80400269300F3F58108F108080D
S2144054B0ACE7079BDA073FF5FEAD01370134012321
S2144054C0072F27942697C8F80060C8F804307FF75F
S2144054D025AE4AE725AA0B990C9803F0C5FD00288F
S2144054E07FF4D2A9279C269FC846F2E525AA0B99A9
S2144054F00C9803F0B9FD00287FF4C6A9279C269F88
S214405500C846F5E54E46FFF7FDB925AA0B990C9817
S21440551003F0AAFD00287FF4B7A9279CC846FFF7EA
S21440552072BA159C22462046149C2346214604F017
S21440553069FC002840F086820A9B0133119B23F0C9
S21440554020030E9300F0E281472B00F01E814BF4BF
S21440555080730793149B1F1E159B0893BBBF3B4647
S21440556003F1004700232D231093119B662B00F078
S214405570BB81462B00F0DF800E9B089A452B0CBF64
S2144055800A9B0A9D23A820A908BF5D1C049003918E
S2144055901FA802213B460290019500910C9801F00D
S2144055A0A3FA119B672B064640F0E0811BF0010FE3
S2144055B000F046827419169A0898179B394604F0EC
S2144055C0EFFB002840F06581239BA34206D23021A2
S2144055D05A1C23921970239B9C42F9D89B1B139309
S2144055E00E9B472B00F0E980119B652B40F3CD8145
S2144055F0119B662B1F9B129300F09E81139B129A61
S2144056001946914200F38A811BF0010F40F0138245
S21440561022EAE273089367230E921193109B002BA5
S21440562040F0C4800A939DF87770FFF773B935460B
S2144056300C464646904601333C44072B2794269317
S21440564088E8A0003FF7D1AE08F10808D7E60F9AE1
S214405650136804320F92099A1A60FFF76AB825AAAF
S2144056600B990C9803F000FD00287FF40DA9C8465E
S2144056708DE4269B274AC8F80020013301340122D6
S214405680072B27942693C8F8042072DC08F10808F4
S21440569029B9139B1BB9079BD8077FF503AA269BFE
S2144056A019981A9AC8F80020013302462244072B5C
S2144056B02792C8F80400269300F38D8108F1080865
S2144056C00029C0F265811399C8F8006001338C1830
S2144056D0072B27942693C8F804107FF7E1A92CE5FA
S2144056E00F9A09991368CD170846043229460F9237
S2144056F0C3E90001FFF71DB825AA0B990C9803F0E3
S214405700B3FC00287FF4C0A8279CC84658E400BFD6
S21440571020A340000CA3400040210C98FEF706F85A
S2144057200B9A10601061002800F0F2810B9A40231B
S2144057305361FEF7EEBF23A820A90A9C049003916C
S2144057401FA803210290089A01943B4600910C98AA
S21440575001F0CAF925460646119B462B06EB050482
S2144057607FF429AF3378302B00F078811F9D2C448E
S21440577021E725AA0B990C9803F076FC00287FF4C5
S21440578083A81F99279CC84682E70A9B002B08BF20
S21440579001230A93DBE630460A94FEF7D1FC0F95C8
S2144057A00E90CDF81CB00346FFF7F9B92D2700231D
S2144057B08DF877700A93FFF7AEB81F9B12931A4680
S2144057C0033304DB0A9B19469142BFF617AF119B81
S2144057D0023B11939DF844308DF88430129B013B78
S2144057E0002B1F93BDBF129BC3F101032D222B221A
S2144057F0092B8DF8852040F316810DF19304204641
S214405800AB4D00E0104685FB0312D917C1EBA20151
S21440581001EB8102A3EB42023032092900F8012C49
S2144058200B4600F1FF32EDDC30330238D9B2844209
S21440583002F8011C40F265810DF18600134601E036
S21440584013F8011B00F8011BA342F9D101339B1A40
S2144058500DF18602134421AA9B1A139A1B93012A20
S21440586013440E9340F319810E9B199A13440E93DA
S21440587023EAE373089300231293CFE625AA0B99F5
S2144058800C9803F0F1FB00287EF4FEAF279CC84638
S214405890D7E42346A2E625AA0B990C9803F0E4FB2E
S2144058A000287EF4F1AF1F9A279CC846AEE525AA8D
S2144058B00B990C9803F0D8FB00287EF4E5AF1F9AAE
S2144058C0139B279C9A1AC846B8E50A9B1296062B45
